:020000023000CC
:10E000000D9472F00D949BF00D949BF00D949BF089
:10E010000D949BF00D949BF00D949BF00D949BF050
:10E020000D949BF00D949BF00D949BF00D949BF040
:10E030000D949BF00D949BF00D949BF00D949BF030
:10E040000D949BF00D949BF00D949BF00D949BF020
:10E050000D949BF00D949BF00D949BF00D949BF010
:10E060000D949BF00D949BF00D949BF00D949BF000
:10E070000D949BF00D949BF00D949BF00D949BF0F0
:10E080000D949BF00D949BF00D949BF00D949BF0E0
:10E090000D949BF00D949BF00D949BF00D949BF0D0
:10E0A0000D949BF00D949BF00D949BF00D949BF0C0
:10E0B0000D949BF00D949BF00D949BF00D949BF0B0
:10E0C0000D949BF00D949BF00D949BF00D949BF0A0
:10E0D0000D949BF00D949BF00D949BF00D949BF090
:10E0E0000D949BF011241FBECFEFD1E2DEBFCDBF58
:10E0F00001E00CBF12E0A0E0B2E0E8E6F0EF03E0E0
:10E100000BBF02C007900D92A030B107D9F712E003
:10E11000A0E0B2E001C01D92A230B107E1F70F9478
:10E120002DF20D9432F801E20EBF0FEF0DBF112456
:10E130001FBE0D942DF20D9400F020E030E040ED74
:10E1400057E005C0FA013197F1F72F5F3F4F2817CD
:10E150003907C0F308951CBC8CB584B984B18760BD
:10E1600084B9289A8CB581658CBD84EF91E020E953
:10E1700031E0F9013197F1F70197D9F708958EBD94
:10E180000DB407FEFDCF8EB5089586E08EBD0DB4AB
:10E1900007FEFDCF8EB5089585E08EBD0DB407FE58
:10E1A000FDCF8EB508959F92AF92BF92CF92DF922E
:10E1B000EF92FF920F931F93CF93DF937B018C011C
:10E1C000EA01A901289AAA27BB27782FBB27A12FEC
:10E1D000902F8F2D982F60E020E030E0F3E09F2E0D
:10E1E000E5E0BE2E80E4C82E8CE9D82EA0EABFE080
:10E1F000AA24AA944CC0613041F1613020F0633010
:10E2000009F045C039C0289880E0BEBC0DB407FEB7
:10E21000FDCF6EB58F5F8530C1F780E009C08B30D0
:10E2200019F4E0E0F0E03DC08F5FF6013197F1F7BF
:10E23000BEBC0DB407FEFDCF0EB400FCF0CF289A93
:10E24000FD013197F1F761E022C028989EBC0DB422
:10E2500007FEFDCF8EB57EBD0DB407FEFDCF8EB59A
:10E260009EBD0DB407FEFDCF8EB5EEBC0DB407FE0E
:10E27000FDCF8EB563E00BC0AEBC0DB407FEFDCF85
:10E280008EB5FE01E20FF31F80832F5F3F4FF90130
:10E290002417350708F4AFCF289A80EA9FE001974A
:10E2A000F1F7CF01DF91CF911F910F91FF90EF9088
:10E2B000DF90CF90BF90AF909F9008958F929F92E4
:10E2C000AF92BF92CF92DF92EF92FF920F931F9384
:10E2D000CF93DF937B018C016A01E901289A60E00A
:10E2E00020E030E0A2E08A2E75E0F0E4AF2EFCE9F9
:10E2F000BF2E40EA5FE0E6E09E2E96C0613009F452
:10E300004EC0613020F0623009F08EC066C028989F
:10E3100080E07EBD0DB407FEFDCF9EB58F5F8530DA
:10E32000C1F7E0E007C0EB3009F489C0EF5FC50139
:10E330000197F1F77EBD0DB407FEFDCF0EB400FCD2
:10E34000F2CF289ACA010197F1F728989EBC0DB424
:10E3500007FEFDCF8EB5289ACA010197F1F72898DC
:10E3600080E07EBD0DB407FEFDCF9EB58F5F85308A
:10E37000C1F7E0E007C0EA3009F461C0EF5FC50112
:10E380000197F1F77EBD0DB407FEFDCF0EB401FE7F
:10E39000F2CF289ACA010197F1F761E045C02898A9
:10E3A0008EBC0DB407FEFDCF8EB5C801AA27BB27D2
:10E3B0008EBD0DB407FEFDCF8EB5BB27A12F902FCC
:10E3C0008F2D8EBD0DB407FEFDCF8EB5EEBC0DB406
:10E3D00007FEFDCF8EB562E027C0F601E20FF31F06
:10E3E00080812F5F3F4F8EBD0DB407FEFDCF8EB5F0
:10E3F0002C173D0729F4289ACA010197F1F714C098
:10E40000D801C7019070A070B0700894E11CF11C95
:10E41000011D111D8F3F9105A105B10529F4289A11
:10E42000CA010197F1F760E02C173D0708F466CFA9
:10E43000289A80EA9FE00197F1F780E001C081E02F
:10E44000DF91CF911F910F91FF90EF90DF90CF90D0
:10E45000BF90AF909F908F9008952F923F924F92D0
:10E460005F926F927F928F929F92AF92BF92CF9264
:10E47000DF92EF92FF920F931F93DF93CF93CDB76D
:10E48000DEB7CA53D2400FB6F894DEBF0FBECDBF81
:10E4900001E20EBF0FEF0DBF94B7F894A89514BE1C
:10E4A0008091600088618093600010926000789491
:10E4B00093FF0BC082E090E00F941CF8813029F0AC
:10E4C000E0910002F091010219959A9AA29A809126
:10E4D000C00082608093C00080E18093C40088E126
:10E4E0008093C1000000CE5DDD4F188219821A8230
:10E4F0001B82C252D2409E012F5F3E4FC75CDD4F50
:10E5000039832883C953D24082E090E00F941CF8ED
:10E51000813019F000E010E0ADC135E53093C60060
:10E520008091C00086FFFCCF8091C0008064809302
:10E53000C00083E090E00F941CF8682E84E090E027
:10E540000F941CF8A82E85E090E00F941CF8E82E9C
:10E5500086E090E00F941CF890E0A0E0B0E0582E28
:10E56000442433242224FF2400E010E08701FF2408
:10E57000EE242E283F28402A512A772488249924E3
:10E580002628372848285928BB24CC24DD24DC2C15
:10E59000CB2CBA2CAA242A283B284C285D2887E0BB
:10E5A00090E00F941CF8A82E88E090E00F941CF8DF
:10E5B000B82E0F94ABF0EE24FF248701CC24DD2489
:10E5C00038C0C801B701AE014F5F5F4F20E031E0B6
:10E5D0000F94D3F0FE0131968081C8268C2D829550
:10E5E0008C25082E869586958025082E8695802573
:10E5F00087700C2CCD2C869507948795D02CC82637
:10E6000006948795D024C8260894E11CF11C011DAE
:10E61000111DE214F3040405150559F03196C75C89
:10E62000DD4F68817981C953D240E617F70709F0B9
:10E63000D3CFE214F3040405150508F4C2CFC45D7A
:10E64000DD4FB882CC52D240C55DDD4F1882CB522F
:10E65000D2408A2D90E0C55DDD4FA881B981CB52B3
:10E66000D2408A2B9B2BC816D906A1F082E090E0FD
:10E6700062E00F9424F883E48093C6008091C00088
:10E6800086FFFCCF8091C00080648093C00002E0D0
:10E6900010E02DC1BFE6B093C6008091C00086FF98
:10E6A000FCCF8091C00080648093C000EBE6E093D3
:10E6B000C6008091C00086FFFCCF8091C0008064BE
:10E6C0008093C000FDE0F093C6008091C00086FFFB
:10E6D000FCCF8091C00080648093C0002AE020932A
:10E6E000C6008091C00086FFFCCF8091C00080648E
:10E6F0008093C000AA24BB246501EE24FF24870177
:10E70000AAC036E43093C6008091C00086FFFCCFDB
:10E710008091C00080648093C000C801B701AE0141
:10E720004F5F5F4F20E031E00F94D3F060E0A6161A
:10E7300060ECB60663E0C60660E0D606E9F075E474
:10E740007093C6008091C00086FFFCCF8091C0000E
:10E7500080648093C00007B600FCFDCFF999FECF1E
:10E7600083E0F501C0925B0080935700E895DE01DD
:10E770001196A801970114C08FE38093C600809181
:10E78000C00086FFFCCF8091C00080648093C000F1
:10E7900082E090E062E00F9424F802E010E063C0B1
:10E7A0008C9111966C91119707B600FCFDCFF999E9
:10E7B000FECFCF5DDD4F6883C152D240C05EDD4FDA
:10E7C0001882C052D24090E0C05EDD4FE881F981EE
:10E7D000C052D2408E2B9F2B61E00C01F901409377
:10E7E0005B0060935700E89511242E5F3F4F4F4F19
:10E7F0005F4F203071E0370770E0470770E0570740
:10E8000059F01296C75CDD4F88819981C953D24077
:10E81000A817B90709F0C4CF07B600FCFDCFF999D6
:10E82000FECF95E0F70100935B0090935700E895C9
:10E8300007B600FCFDCFF999FECF60E071E080E003
:10E8400090E0A60EB71EC81ED91E71E17093570046
:10E85000E89579018A01E214F3040405150508F42A
:10E8600050CF00E010E082E090E060E00F9424F8E8
:10E870000E5F1F4F8091C00087FD39C084E090E09B
:10E880000197F1F7CE5DDD4F88819981AA81BB8127
:10E89000C252D2400196A11DB11DCE5DDD4F8883CD
:10E8A0009983AA83BB83C252D24081529E44A04026
:10E8B000B04010F001E010E0CE5DDD4F688179815D
:10E8C0008A819B81C252D24027EC3BE140E050E07C
:10E8D0000F94FAF7611571058105910521F484B350
:10E8E00094E0892784BB0115110509F40DCE980128
:10E8F0002F5F3F4FC25EDD4F39832883CE51D24018
:10E900002115310509F400CE2130310509F055C338
:10E9100066247724A0E0CA5DDD4F1882C652D2403B
:10E92000222433242101C95DDD4F188219821A8205
:10E930001B82C752D2404BBEF10167917691CD5CEC
:10E94000DD4F79836883C353D24051E0A52EB52EA5
:10E95000AC0EBD1EC5010296CB5CDD4F998388834A
:10E96000C553D240F5013A96C95CDD4FF983E8837F
:10E97000C753D2401EC3C25EDD4F28813981CE51BC
:10E98000D2402130310509F52091C600C25EDD4F2D
:10E9900019821882CE51D24022C02F5F3F4F4F4F75
:10E9A0005F4F213082E138078AE7480780E0580747
:10E9B00080F0CD5CDD4FE881F981C353D240EF5F39
:10E9C000FF4F19F0EE27FF27099420E030E040E0E8
:10E9D00050E08091C00087FFE0CF2091C6009330C7
:10E9E00009F1943028F4913081F09230B0F407C0EE
:10E9F000953039F19530E8F09630B1F531C02B31D2
:10EA000009F0B9CF91E0ABE1B6CFA227CA5DDD4FE7
:10EA10002883C652D24092E0AECF722F60E0A22788
:10EA200093E0A9CF822F90E0682B792BA22794E066
:10EA3000A2CF2E3009F0DCC2A22795E0662477240D
:10EA40009ACFF501E60DF71D20830894611C711C17
:10EA5000A2276616770609F08ECFB30196E08BCF1A
:10EA60002A1709F0C5C203C0973009F084CFD50139
:10EA70009C91923109F4D2C09331A0F4933009F4FF
:10EA80006CC0943030F49130F1F1923009F010C242
:10EA900038C09031B1F1913108F077C0963009F06B
:10EAA00007C2C8C0963109F493C1973100F594317B
:10EAB00009F48EC1F501F181C25DDD4FF883CE52BC
:10EAC000D240C35DDD4F1882CD52D240D50112969F
:10EAD0008C91C82EDD24C35DDD4FE881F981CD52D4
:10EAE000D240CE2ADF2A933109F045C1D3C09A31F2
:10EAF00009F462C09B3109F44EC0983109F0D8C1C5
:10EB000066C090E043C0D50111961C92119788E031
:10EB100012968C93129781E413968C93139786E543
:10EB200014968C93149782E515968C93159789E427
:10EB300016968C93169783E517968C93179780E516
:10EB400018968C9318978FE519968C93199782E3F2
:10EB50001A968C932BE030E0B1C1F50181818139A7
:10EB600041F0823941F0803911F48FE005C080E036
:10EB700003C082E001C08AE0D50111961C92119772
:10EB800012968C9323E030E099C191E0F501118257
:10EB900022E030E094C1D50114968C91882311F4C1
:10EBA0008EE105C0813011F081E001C088E9F501F6
:10EBB0001182828313822FC0D50111961C92119766
:10EBC00029E0E1E0F0E02093570084911FC0F501B7
:10EBD0008281803589F48381883039F429E0E2E04C
:10EBE000F0E02093570084910DC029E0E0E0F0E0D0
:10EBF00020935700849106C0E3E0F0E039E03093C1
:10EC000057008491D50111961C92119712968C93FE
:10EC1000129713961C9224E030E050C120ECF501CD
:10EC20002183C95DDD4F188219821A821B82C75267
:10EC3000D24042C1D50111968C9190E0A0E0B0E0A5
:10EC4000582E442433242224F501828190E0A0E050
:10EC5000B0E0DC0199278827282A392A4A2A5B2A2A
:10EC6000848190E0A0E0B0E0282A392A4A2A5B2A71
:10EC7000838190E0A0E0B0E0BA2FA92F982F8827D9
:10EC8000282A392A4A2A5B2A220C331C441C551C88
:10EC9000118212C1C95DDD4F688179818A819B81B2
:10ECA000C752D2406030A0EC7A07A3E08A07A0E008
:10ECB0009A07F0F4B3E0FB0180935B00B093570038
:10ECC000E89507B600FCFDCFC95DDD4F688179810D
:10ECD0008A819B81C752D24060507F4F8F4F9F4F98
:10ECE000C95DDD4F688379838A839B83C752D24095
:10ECF000B201A101C95CDD4FA881B981C753D240DF
:10ED00008C9111962C9111971296C05DDD4F28833E
:10ED1000C053D240C15DDD4F1882CF52D24090E047
:10ED2000C15DDD4FE881F981CF52D2408E2B9F2B00
:10ED300021E00C01FA0160935B0020935700E895F5
:10ED400011244E5F5F4F6F4F7F4F8EEF9FEFC80EC6
:10ED5000D91EC114D104A1F695E0F10140925B00E7
:10ED600090935700E89507B600FCFDCF81E18093B2
:10ED70005700E89528C0D201C101B695A79597958F
:10ED800087957C018601C95CDD4F88809980C753D7
:10ED9000D2400BC0D4016D914D01C7010F9424F8EE
:10EDA0000894E11CF11C015010400115110591F768
:10EDB000A60160E070E0440F551F661F771F420DEB
:10EDC000531D641D751DF50111821A012B0174C0BC
:10EDD000D5011196BC91CE5CDD4FB883C253D240B1
:10EDE000CF5CDD4F1882C153D240F5018281C82E1D
:10EDF000DD24CF5CDD4F28813981C153D240C22A46
:10EE0000D32A118280818431E9F49601CB5CDD4FF5
:10EE100068817981C553D2404BBEF10187919691AB
:10EE2000DB018C9311969C936E5F7F4F82E090E0A4
:10EE3000A0E0B0E0280E391E4A1E5B1E2250304072
:10EE400059F730C0A2019101CB5CDD4F6881798117
:10EE5000C553D2400894C108D108760100E010E003
:10EE60000894C11CD11C0894E11CF11C011D111D4A
:10EE7000E20CF31C041D151D21BDBB27A52F942FEB
:10EE8000832F82BD2F5F3F4F4F4F5F4FF89A80B562
:10EE9000DB018D93BD012E153F054007510761F73A
:10EEA00019012A0196012D5F3F4FFB01108206C018
:10EEB000E0ECD5011196EC9322E030E090E0FBE12C
:10EEC000F093C6008091C00086FFFCCF8091C00007
:10EED00080648093C000CA5DDD4F6881C652D24015
:10EEE0006093C6008091C00086FFFCCF8091C00077
:10EEF00080648093C000532F3093C6008091C0007F
:10EF000086FFFCCF8091C00080648093C000422FB8
:10EF10002093C6008091C00086FFFCCF8091C00086
:10EF200080648093C0008EE08093C6008091C00012
:10EF300086FFFCCF8091C00080648093C000A5E173
:10EF4000CA5DDD4F7881C652D240A727A427A527E6
:10EF5000F50110C040814093C6008091C00086FF3B
:10EF6000FCCF31968091C00080648093C000A427BC
:10EF7000215030402115310569F7A093C6008091DA
:10EF8000C00086FFFCCF8091C00080648093C000E9
:10EF900084B3B4E08B2784BB992379F4CA5DDD4F39
:10EFA000E881C652D240EF5FCA5DDD4FE883C652AA
:10EFB000D24090E060E070E0DECC9A98A29880E0C9
:10EFC00090E020ED37E0F9013197F1F701968436B2
:10EFD0009105C9F700008091C0008D7F8093C0002B
:10EFE00081E180935700E895EE27FF270994FFCF32
:10EFF00090E0C1CCA1E21A2EAA1BBB1BFD010DC0E3
:10F00000AA1FBB1FEE1FFF1FA217B307E407F507D8
:10F0100020F0A21BB30BE40BF50B661F771F881FB4
:10F02000991F1A9469F760957095809590959B014A
:10F03000AC01BD01CF010895F999FECF92BD81BD0C
:10F04000F89A992780B50895262FF999FECF1FBA0F
:10F0500092BD81BD20BD0FB6F894FA9AF99A0FBE01
:08F0600001960895F894FFCF1A
:040000033000E000E9
:00000001FF
